{
  "_format": "hh-sol-artifact-1",
  "contractName": "VotingDapp",
  "sourceName": "contracts/VotingDapp.sol",
  "abi": [
    {
      "inputs": [],
      "stateMutability": "nonpayable",
      "type": "constructor"
    },
    {
      "anonymous": false,
      "inputs": [
        {
          "indexed": true,
          "internalType": "uint256",
          "name": "id",
          "type": "uint256"
        },
        {
          "indexed": false,
          "internalType": "string",
          "name": "title",
          "type": "string"
        },
        {
          "indexed": false,
          "internalType": "string",
          "name": "description",
          "type": "string"
        },
        {
          "indexed": false,
          "internalType": "uint256",
          "name": "duration",
          "type": "uint256"
        },
        {
          "indexed": false,
          "internalType": "string[]",
          "name": "candidateNames",
          "type": "string[]"
        },
        {
          "indexed": false,
          "internalType": "string[]",
          "name": "candidateImages",
          "type": "string[]"
        },
        {
          "indexed": false,
          "internalType": "string[]",
          "name": "partyNames",
          "type": "string[]"
        },
        {
          "indexed": false,
          "internalType": "string[]",
          "name": "partySymbols",
          "type": "string[]"
        }
      ],
      "name": "PollCreated",
      "type": "event"
    },
    {
      "inputs": [
        {
          "internalType": "string",
          "name": "_title",
          "type": "string"
        },
        {
          "internalType": "string",
          "name": "_description",
          "type": "string"
        },
        {
          "internalType": "uint256",
          "name": "_duration",
          "type": "uint256"
        },
        {
          "internalType": "string[]",
          "name": "_candidateNames",
          "type": "string[]"
        },
        {
          "internalType": "string[]",
          "name": "_candidateImages",
          "type": "string[]"
        },
        {
          "internalType": "string[]",
          "name": "_partyNames",
          "type": "string[]"
        },
        {
          "internalType": "string[]",
          "name": "_partySymbols",
          "type": "string[]"
        }
      ],
      "name": "createPoll",
      "outputs": [],
      "stateMutability": "nonpayable",
      "type": "function"
    },
    {
      "inputs": [
        {
          "internalType": "uint256",
          "name": "_pollId",
          "type": "uint256"
        },
        {
          "internalType": "string",
          "name": "_candidateName",
          "type": "string"
        }
      ],
      "name": "getCandidateDetails",
      "outputs": [
        {
          "internalType": "string",
          "name": "",
          "type": "string"
        },
        {
          "internalType": "string",
          "name": "",
          "type": "string"
        },
        {
          "internalType": "string",
          "name": "",
          "type": "string"
        },
        {
          "internalType": "string",
          "name": "",
          "type": "string"
        }
      ],
      "stateMutability": "view",
      "type": "function"
    },
    {
      "inputs": [
        {
          "internalType": "uint256",
          "name": "_pollId",
          "type": "uint256"
        }
      ],
      "name": "getCandidateNames",
      "outputs": [
        {
          "internalType": "string[]",
          "name": "",
          "type": "string[]"
        }
      ],
      "stateMutability": "view",
      "type": "function"
    },
    {
      "inputs": [
        {
          "internalType": "uint256",
          "name": "_pollId",
          "type": "uint256"
        }
      ],
      "name": "getPollDetails",
      "outputs": [
        {
          "internalType": "string",
          "name": "title",
          "type": "string"
        },
        {
          "internalType": "string",
          "name": "description",
          "type": "string"
        },
        {
          "internalType": "uint256",
          "name": "startTime",
          "type": "uint256"
        },
        {
          "internalType": "uint256",
          "name": "duration",
          "type": "uint256"
        },
        {
          "internalType": "string[]",
          "name": "candidateNames",
          "type": "string[]"
        },
        {
          "internalType": "string[]",
          "name": "candidateImages",
          "type": "string[]"
        },
        {
          "internalType": "string[]",
          "name": "partyNames",
          "type": "string[]"
        },
        {
          "internalType": "string[]",
          "name": "partySymbols",
          "type": "string[]"
        }
      ],
      "stateMutability": "view",
      "type": "function"
    },
    {
      "inputs": [],
      "name": "getPollsCount",
      "outputs": [
        {
          "internalType": "uint256",
          "name": "",
          "type": "uint256"
        }
      ],
      "stateMutability": "view",
      "type": "function"
    },
    {
      "inputs": [
        {
          "internalType": "uint256",
          "name": "_pollId",
          "type": "uint256"
        },
        {
          "internalType": "string",
          "name": "_candidate",
          "type": "string"
        }
      ],
      "name": "getVotesForCandidate",
      "outputs": [
        {
          "internalType": "uint256",
          "name": "",
          "type": "uint256"
        }
      ],
      "stateMutability": "view",
      "type": "function"
    },
    {
      "inputs": [],
      "name": "owner",
      "outputs": [
        {
          "internalType": "address",
          "name": "",
          "type": "address"
        }
      ],
      "stateMutability": "view",
      "type": "function"
    },
    {
      "inputs": [
        {
          "internalType": "uint256",
          "name": "",
          "type": "uint256"
        }
      ],
      "name": "polls",
      "outputs": [
        {
          "internalType": "uint256",
          "name": "id",
          "type": "uint256"
        },
        {
          "internalType": "string",
          "name": "title",
          "type": "string"
        },
        {
          "internalType": "string",
          "name": "description",
          "type": "string"
        },
        {
          "internalType": "uint256",
          "name": "startTime",
          "type": "uint256"
        },
        {
          "internalType": "uint256",
          "name": "duration",
          "type": "uint256"
        },
        {
          "internalType": "bool",
          "name": "isActive",
          "type": "bool"
        }
      ],
      "stateMutability": "view",
      "type": "function"
    },
    {
      "inputs": [
        {
          "internalType": "uint256",
          "name": "_pollId",
          "type": "uint256"
        },
        {
          "internalType": "string",
          "name": "_candidate",
          "type": "string"
        }
      ],
      "name": "vote",
      "outputs": [],
      "stateMutability": "nonpayable",
      "type": "function"
    }
  ],
  "bytecode": "0x608060405234801561001057600080fd5b50600080546001600160a01b03191633179055611acd806100326000396000f3fe608060405234801561001057600080fd5b50600436106100935760003560e01c80639a0040e4116100665780639a0040e41461010e578063ac2f007414610135578063e09959161461015a578063f3c614051461016f578063f64801731461018257610093565b80632410847514610098578063689aa33d146100ad5780637eb507d7146100d95780638da5cb5b146100f9575b600080fd5b6100ab6100a63660046114ed565b610195565b005b6100c06100bb3660046114ed565b6102a0565b6040516100d094939291906115f1565b60405180910390f35b6100ec6100e73660046114d5565b61054c565b6040516100d091906115d7565b6101016106ed565b6040516100d091906115c3565b61012161011c3660046114d5565b6106fc565b6040516100d09897969594939291906117a1565b6101486101433660046114d5565b610d50565b6040516100d09695949392919061196d565b610162610e9a565b6040516100d09190611964565b61016261017d3660046114ed565b610ea0565b6100ab6101903660046113dc565b610eff565b600082815260026020526040902060090154829060ff166101d15760405162461bcd60e51b81526004016101c890611886565b60405180910390fd5b600083815260026020908152604080832033845260050190915290205460ff161561020e5760405162461bcd60e51b81526004016101c890611921565b600082511161022f5760405162461bcd60e51b81526004016101c890611834565b600260008481526020019081526020016000206006018260405161025391906115a7565b908152604051908190036020019020805490600061027083611a5a565b9091555050506000918252506002602090815260408083203384526005019091529020805460ff19166001179055565b6060806060806001548611156102c85760405162461bcd60e51b81526004016101c8906118b2565b60008681526002602052604080822090516007909101906102ea9088906115a7565b908152602001604051809103902090508060000181600101826002018360030183805461031690611a1f565b80601f016020809104026020016040519081016040528092919081815260200182805461034290611a1f565b801561038f5780601f106103645761010080835404028352916020019161038f565b820191906000526020600020905b81548152906001019060200180831161037257829003601f168201915b505050505093508280546103a290611a1f565b80601f01602080910402602001604051908101604052809291908181526020018280546103ce90611a1f565b801561041b5780601f106103f05761010080835404028352916020019161041b565b820191906000526020600020905b8154815290600101906020018083116103fe57829003601f168201915b5050505050925081805461042e90611a1f565b80601f016020809104026020016040519081016040528092919081815260200182805461045a90611a1f565b80156104a75780601f1061047c576101008083540402835291602001916104a7565b820191906000526020600020905b81548152906001019060200180831161048a57829003601f168201915b505050505091508080546104ba90611a1f565b80601f01602080910402602001604051908101604052809291908181526020018280546104e690611a1f565b80156105335780601f1061050857610100808354040283529160200191610533565b820191906000526020600020905b81548152906001019060200180831161051657829003601f168201915b5050505050905094509450945094505092959194509250565b60606001548211156105705760405162461bcd60e51b81526004016101c8906118b2565b6000828152600260205260408120600881015490919067ffffffffffffffff8111156105ac57634e487b7160e01b600052604160045260246000fd5b6040519080825280602002602001820160405280156105df57816020015b60608152602001906001900390816105ca5790505b50905060005b60088301548110156106e55782600801818154811061061457634e487b7160e01b600052603260045260246000fd5b90600052602060002001805461062990611a1f565b80601f016020809104026020016040519081016040528092919081815260200182805461065590611a1f565b80156106a25780601f10610677576101008083540402835291602001916106a2565b820191906000526020600020905b81548152906001019060200180831161068557829003601f168201915b50505050508282815181106106c757634e487b7160e01b600052603260045260246000fd5b602002602001018190525080806106dd90611a5a565b9150506105e5565b509392505050565b6000546001600160a01b031681565b60608060008060608060608060015489111561072a5760405162461bcd60e51b81526004016101c8906118b2565b600089815260026020526040902060018101805461074790611a1f565b80601f016020809104026020016040519081016040528092919081815260200182805461077390611a1f565b80156107c05780601f10610795576101008083540402835291602001916107c0565b820191906000526020600020905b8154815290600101906020018083116107a357829003601f168201915b505050505098508060020180546107d690611a1f565b80601f016020809104026020016040519081016040528092919081815260200182805461080290611a1f565b801561084f5780601f106108245761010080835404028352916020019161084f565b820191906000526020600020905b81548152906001019060200180831161083257829003601f168201915b505050600384015460048501546008860154949c50909a509850505067ffffffffffffffff81111561089157634e487b7160e01b600052604160045260246000fd5b6040519080825280602002602001820160405280156108c457816020015b60608152602001906001900390816108af5790505b50600882015490955067ffffffffffffffff8111156108f357634e487b7160e01b600052604160045260246000fd5b60405190808252806020026020018201604052801561092657816020015b60608152602001906001900390816109115790505b50600882015490945067ffffffffffffffff81111561095557634e487b7160e01b600052604160045260246000fd5b60405190808252806020026020018201604052801561098857816020015b60608152602001906001900390816109735790505b50600882015490935067ffffffffffffffff8111156109b757634e487b7160e01b600052604160045260246000fd5b6040519080825280602002602001820160405280156109ea57816020015b60608152602001906001900390816109d55790505b50915060005b6008820154811015610d43576000826008018281548110610a2157634e487b7160e01b600052603260045260246000fd5b906000526020600020018054610a3690611a1f565b80601f0160208091040260200160405190810160405280929190818152602001828054610a6290611a1f565b8015610aaf5780601f10610a8457610100808354040283529160200191610aaf565b820191906000526020600020905b815481529060010190602001808311610a9257829003601f168201915b5050505050905060008360070182604051610aca91906115a7565b9081526020016040518091039020905081888481518110610afb57634e487b7160e01b600052603260045260246000fd5b6020026020010181905250806001018054610b1590611a1f565b80601f0160208091040260200160405190810160405280929190818152602001828054610b4190611a1f565b8015610b8e5780601f10610b6357610100808354040283529160200191610b8e565b820191906000526020600020905b815481529060010190602001808311610b7157829003601f168201915b5050505050878481518110610bb357634e487b7160e01b600052603260045260246000fd5b6020026020010181905250806002018054610bcd90611a1f565b80601f0160208091040260200160405190810160405280929190818152602001828054610bf990611a1f565b8015610c465780601f10610c1b57610100808354040283529160200191610c46565b820191906000526020600020905b815481529060010190602001808311610c2957829003601f168201915b5050505050868481518110610c6b57634e487b7160e01b600052603260045260246000fd5b6020026020010181905250806003018054610c8590611a1f565b80601f0160208091040260200160405190810160405280929190818152602001828054610cb190611a1f565b8015610cfe5780601f10610cd357610100808354040283529160200191610cfe565b820191906000526020600020905b815481529060010190602001808311610ce157829003601f168201915b5050505050858481518110610d2357634e487b7160e01b600052603260045260246000fd5b602002602001018190525050508080610d3b90611a5a565b9150506109f0565b5050919395975091939597565b60026020526000908152604090208054600182018054919291610d7290611a1f565b80601f0160208091040260200160405190810160405280929190818152602001828054610d9e90611a1f565b8015610deb5780601f10610dc057610100808354040283529160200191610deb565b820191906000526020600020905b815481529060010190602001808311610dce57829003601f168201915b505050505090806002018054610e0090611a1f565b80601f0160208091040260200160405190810160405280929190818152602001828054610e2c90611a1f565b8015610e795780601f10610e4e57610100808354040283529160200191610e79565b820191906000526020600020905b815481529060010190602001808311610e5c57829003601f168201915b50505050600383015460048401546009909401549293909290915060ff1686565b60015490565b6000600154831115610ec45760405162461bcd60e51b81526004016101c8906118b2565b6002600084815260200190815260200160002060060182604051610ee891906115a7565b908152602001604051809103902054905092915050565b6000546001600160a01b03163314610f295760405162461bcd60e51b81526004016101c89061185f565b6000845111610f4a5760405162461bcd60e51b81526004016101c8906118df565b6000610f54610e9a565b9050610f5e611246565b60008181526002602090815260409091208281558951610f86926001909201918b019061125d565b5060008181526002602081815260409092208951610fac939190920191908a019061125d565b50600081815260026020526040812042600382015560048101889055600901805460ff191660011790555b85518110156111e257604051806080016040528087838151811061100b57634e487b7160e01b600052603260045260246000fd5b6020026020010151815260200186838151811061103857634e487b7160e01b600052603260045260246000fd5b6020026020010151815260200185838151811061106557634e487b7160e01b600052603260045260246000fd5b6020026020010151815260200184838151811061109257634e487b7160e01b600052603260045260246000fd5b6020026020010151815250600260008481526020019081526020016000206007018783815181106110d357634e487b7160e01b600052603260045260246000fd5b60200260200101516040516110e891906115a7565b9081526020016040518091039020600082015181600001908051906020019061111292919061125d565b50602082810151805161112b926001850192019061125d565b506040820151805161114791600284019160209091019061125d565b506060820151805161116391600384019160209091019061125d565b509050506002600083815260200190815260200160002060080186828151811061119d57634e487b7160e01b600052603260045260246000fd5b602090810291909101810151825460018101845560009384529282902081516111cf949190910192919091019061125d565b50806111da81611a5a565b915050610fd7565b50807ffb77ffc48d52c298e56d15bb002708309179930095cbdf197d2f38c71e881885898989600260008781526020019081526020016000206008018989896040516112349796959493929190611649565b60405180910390a25050505050505050565b6001805490600061125683611a5a565b9190505550565b82805461126990611a1f565b90600052602060002090601f01602090048101928261128b57600085556112d1565b82601f106112a457805160ff19168380011785556112d1565b828001600101855582156112d1579182015b828111156112d15782518255916020019190600101906112b6565b506112dd9291506112e1565b5090565b5b808211156112dd57600081556001016112e2565b600082601f830112611306578081fd5b8135602067ffffffffffffffff82111561132257611322611a81565b61132f81828402016119b9565b82815281810190858301855b8581101561136457611352898684358b0101611371565b8452928401929084019060010161133b565b5090979650505050505050565b600082601f830112611381578081fd5b813567ffffffffffffffff81111561139b5761139b611a81565b6113ae601f8201601f19166020016119b9565b8181528460208386010111156113c2578283fd5b816020850160208301379081016020019190915292915050565b600080600080600080600060e0888a0312156113f6578283fd5b873567ffffffffffffffff8082111561140d578485fd5b6114198b838c01611371565b985060208a013591508082111561142e578485fd5b61143a8b838c01611371565b975060408a0135965060608a0135915080821115611456578485fd5b6114628b838c016112f6565b955060808a0135915080821115611477578485fd5b6114838b838c016112f6565b945060a08a0135915080821115611498578384fd5b6114a48b838c016112f6565b935060c08a01359150808211156114b9578283fd5b506114c68a828b016112f6565b91505092959891949750929550565b6000602082840312156114e6578081fd5b5035919050565b600080604083850312156114ff578182fd5b82359150602083013567ffffffffffffffff81111561151c578182fd5b61152885828601611371565b9150509250929050565b60008282518085526020808601955080818302840101818601855b8481101561136457601f1986840301895261156983835161157b565b9884019892509083019060010161154d565b600081518084526115938160208601602086016119ef565b601f01601f19169290920160200192915050565b600082516115b98184602087016119ef565b9190910192915050565b6001600160a01b0391909116815260200190565b6000602082526115ea6020830184611532565b9392505050565b600060808252611604608083018761157b565b8281036020840152611616818761157b565b9050828103604084015261162a818661157b565b9050828103606084015261163e818561157b565b979650505050505050565b600060e0825261165c60e083018a61157b565b60208382038185015261166f828b61157b565b915088604085015283820360608501528188548084528284019150828382028501018a8652838620865b8381101561175357868303601f1901855281548890600281046001808316806116c357607f831692505b8a83108114156116e157634e487b7160e01b8d52602260045260248dfd5b6116eb8389611964565b8180156116ff57600181146117105761173a565b60ff19861682528c8201965061173a565b611719896119e3565b8f5b8681101561173457815484820152908501908e0161171b565b83019750505b5050509789019792955050509190910190600101611699565b50508681036080880152611767818b611532565b94505050505082810360a084015261177f8186611532565b905082810360c08401526117938185611532565b9a9950505050505050505050565b60006101008083526117b58184018c61157b565b905082810360208401526117c9818b61157b565b905088604084015287606084015282810360808401526117e98188611532565b905082810360a08401526117fd8187611532565b905082810360c08401526118118186611532565b905082810360e08401526118258185611532565b9b9a5050505050505050505050565b602080825260119082015270496e76616c69642063616e64696461746560781b604082015260600190565b6020808252600d908201526c2737ba103a34329037bbb732b960991b604082015260600190565b602080825260129082015271506f6c6c206973206e6f742061637469766560701b604082015260600190565b602080825260139082015272141bdb1b08191bd95cc81b9bdd08195e1a5cdd606a1b604082015260600190565b60208082526022908201527f4174206c65617374206f6e652063616e64696461746520697320726571756972604082015261195960f21b606082015260800190565b60208082526023908201527f596f75206861766520616c726561647920766f74656420696e207468697320706040820152621bdb1b60ea1b606082015260800190565b90815260200190565b600087825260c0602083015261198660c083018861157b565b8281036040840152611998818861157b565b606084019690965250506080810192909252151560a0909101529392505050565b60405181810167ffffffffffffffff811182821017156119db576119db611a81565b604052919050565b60009081526020902090565b60005b83811015611a0a5781810151838201526020016119f2565b83811115611a19576000848401525b50505050565b600281046001821680611a3357607f821691505b60208210811415611a5457634e487b7160e01b600052602260045260246000fd5b50919050565b6000600019821415611a7a57634e487b7160e01b81526011600452602481fd5b5060010190565b634e487b7160e01b600052604160045260246000fdfea26469706673582212209bd8d434f31710db0b2fe47a09c0ab34d8931a28a241d04b73f59c6c74771eb964736f6c63430008000033",
  "linkReferences": {},
  "deployedLinkReferences": {}
}